S01100006C63645F74657374322E737265638F
S113000045C0000060C000005EC000005CC000008D
S11300105AC0000058C0000056C0000054C0000080
S113002052C0000050C000004EC000004CC0000090
S11300304AC0000048C0000046C0000044C00000A0
S113004042C0000040C000003EC000003CC00000B0
S11300503AC0000038C0000036C0000034C00000C0
S113006032C0000030C000002EC000002CC00000D0
S11300702AC0000028C0000026C0000024C00000E0
S113008022C0000020C000001EC0000011241FBEBA
S1130090CFEFD0E1DEBFCDBF11E0A0E0B1E0E0ECF6
S11300A0F5E000E00BBF02C007900D92AA30B10743
S11300B0D9F721E0AAE0B1E001C01D92A53FB20743
S11300C0E1F7FED07BC29CCFD898D998982F907F27
S11300D094609BBB2BE72A95F1F7DA98D898D998C6
S11300E020E1829FC001112484608BBB8BE78A9539
S11300F0F1F7DA980895D998982F907F95609BBB73
S11301002BE72A95F1F7DA98D99820E1829FC0016C
S1130110112485608BBB8BE78A95F1F7DA980895F3
S1130120EADF83E397E00197F1F70895CF93DF9334
S1130130EC018881882329F02196F2DF89918111CD
S1130140FCCFDF91CF91089590E4899F600D112435
S1130150862F8068B9CF089581E0B6DF86E69EE0F9
S11301600197F1F70000089582E0AEDF86E69EE095
S11301700197F1F7000088E2A7DF9BE59A95F1F774
S11301808CE0A2DF8BE58A95F1F786E09DDF9BE5A5
S11301909A95F1F7E1CF0895CF92DF92FF920F93F2
S11301A01F93CF93DF938093EC019093ED01805DD7
S11301B08093F00160E081E0C7DF80EF91E0B6DF7B
S11301C061E081E0C1DF86E091E0B0DF81E090E0B2
S11301D09093E7018093E601CC24C394D12C0AE0E8
S11301E010E00F2EFBE0FF2EF02DCAEED1E082E0EE
S11301F090E0C3D0FC019093EB018093EA0120913D
S1130200EC013091ED012C9DC0012D9D900D3C9D84
S1130210900D1124B8018AD0605D6083805D818374
S1130220F29EF001F39EF00D1124EC0DFD1DEE0F76
S1130230FF1FE65FFE4FD183C08360E080E084DF70
S11302408091EC019091ED01F89EF001F99EF00D82
S113025011248091E6019091E701E80FF91FEE0F58
S1130260FF1FE65FFE4F0190F081E02D80819181B8
S11302705DDF2FEF8FE39BE0215080409040E1F75A
S113028000C000008091EA019091EB010ED1E09151
S1130290E601F091E7016F012FEFC21AD20AD09262
S11302A0E701C092E6018AE0C816D1040CF49FCF9E
S11302B0DF91CF911F910F91FF90DF90CF90089520
S11302C08FEF8ABB8BBB11BA4FDF80B3813019F437
S11302D082E090E061DF80B3823019F483E090E043
S11302E05BDF80B3843019F484E090E055DF80B3A1
S11302F0883019F485E090E04FDF80B3803119F441
S113030086E090E049DF80B3803219F487E090E022
S113031043DF80B3803419F488E090E03DDF80B39C
S1130320803899F689E090E037DFCFCF97FB072E2E
S113033016F4009406D077FD08D00BD007FC05D046
S11303403EF4909581959F4F0895709561957F4FE8
S11303500895AA1BBB1B51E107C0AA1FBB1FA61708
S1130360B70710F0A61BB70B881F991F5A95A9F75A
S113037080959095BC01CD0108950F931F93CF9361
S1130380DF938230910510F482E090E0E091F30174
S1130390F091F40120E030E0A0E0B0E0309719F1F2
S11303A0408151810281138148175907C8F084178D
S11303B0950769F4109731F012960C9312971396DF
S11303C01C9327C00093F3011093F40122C021155C
S11303D0310519F04217530718F49A01BD01EF01D2
S11303E0DF01F801DBCF21153105F9F0281B390BAA
S11303F02430310580F48A819B816115710521F0D7
S1130400FB019383828304C09093F4018093F301EE
S1130410FE01329644C0FE01E20FF31F81939193D3
S113042022503109398328833AC02091F101309157
S1130430F201232B41F42091020130910301309306
S1130440F2012093F1012091000130910101211565
S1130450310541F42DB73EB7409104015091050197
S1130460241B350BE091F101F091F201E217F3073F
S1130470A0F42E1B3F0B2817390778F0AC014E5F10
S11304805F4F2417350748F04E0F5F1F5093F2015A
S11304904093F1018193919302C0E0E0F0E0CF0139
S11304A0DF91CF911F910F910895CF93DF93009720
S11304B009F481C0FC01329713821282A091F301E6
S11304C0B091F401109781F420813181820F931F40
S11304D02091F1013091F2012817390751F5F09379
S11304E0F201E093F10167C0ED0120E030E0CE17A6
S11304F0DF0740F44A815B819E0141155105F1F00B
S1130500EA01F5CFD383C28340815181840F951FC3
S1130510C817D90759F488819981840F951F0296C9
S1130520918380838A819B81938382832115310502
S113053029F4F093F401E093F3013DC0E901FB8356
S1130540EA8349915991C40FD51FEC17FD0761F453
S113055080819181840F951F0296E9019983888394
S1130560828193819B838A83E0E0F0E012968D91EF
S11305709C911397009719F0FD01DC01F7CF8D9141
S11305809C9111979D012E5F3F4F820F931F2091E5
S1130590F1013091F2012817390769F4309729F4F1
S11305A01092F4011092F30102C013821282B093EC
S11305B0F201A093F101DF91CF910895F894FFCF58
S10D05C00000F501200044414E0044
S9030000FC
