S0140000446F6F724C6F636B50726F6A2E7372656358
S113000045C0000060C000005EC000005CC000008D
S11300105AC0000058C0000056C0000054C0000080
S113002052C0000050C000004EC000004CC0000090
S11300304AC0000048C0000046C0000044C00000A0
S113004042C0000040C000003EC000003CC00000B0
S11300503AC0000038C0000036C0000034C00000C0
S113006032C0000030C000002EC000002CC00000D0
S11300702AC0000028C0000026C0000024C00000E0
S113008022C0000020C000001EC0000011241FBEBA
S1130090CFEFD0E1DEBFCDBF11E0A0E0B1E0EEE6EE
S11300A0F7E000E00BBF02C007900D92AA3CB10735
S11300B0D9F721E0AAECB1E001C01D92AD3DB20731
S11300C0E1F7E4D152C39CCFD898D998982F907F68
S11300D094609BBB29E72A95F1F70000DA98D89839
S11300E0D99820E1829FC001112484608BBB89E7E9
S11300F08A95F1F70000DA980895D998982F907F9F
S113010095609BBB29E72A95F1F70000DA98D99806
S113011020E1829FC001112485608BBB89E78A9509
S1130120F1F70000DA980895E8DF8AE197E0019793
S1130130F1F700000895CF93DF93EC0188818823C1
S113014029F02196F1DF89918111FCCFDF91CF91C4
S1130150089590E4899F600D1124862F8068B4CFA0
S1130160089581E0B1DF84E39EE00197F1F700C0D8
S11301700000089582E0A8DF84E39EE00197F1F790
S113018000C0000088E2A0DF9AE59A95F1F78CE0C0
S11301909BDF8AE58A95F1F786E096DF9AE59A95E2
S11301A0F1F7DFCF08958EEF82BB88E097E40197E3
S11301B0F1F7000080B3807F803E51F480B3807FEC
S11301C0803EE1F3109208011092070181E3089543
S11301D080B3807F803D51F480B3807F803DE1F324
S11301E0109208011092070184E3089580B3807F80
S11301F0803B51F480B3807F803BE1F3109208018F
S11302001092070187E3089580B3807F803779F4E3
S113021080B3807F8037E1F381E0909106019111F2
S113022080E08093D9018093060180E008958DEFEA
S113023082BB88E097E40197F1F7000080B3807FE8
S1130240803E51F480B3807F803EE1F31092080138
S11302501092070182E3089580B3807F803D51F4BA
S113026080B3807F803DE1F3109208011092070172
S113027085E3089580B3807F803B51F480B3807F11
S1130280803BE1F3109208011092070188E308957E
S113029080B3807F803751F480B3807F8037E1F36F
S11302A0109208011092070180E308958BEF82BB3E
S11302B088E097E40197F1F7000080B3807F803EE7
S11302C051F480B3807F803EE1F3109208011092D4
S11302D0070183E3089580B3807F803D51F480B3A8
S11302E0807F803DE1F3109208011092070186E3BC
S11302F0089580B3807F803B51F480B3807F803B3E
S1130300E1F3109208011092070189E3089580B384
S1130310807F803779F480B3807F8037E1F381E098
S113032090910501911180E08093D801809305019B
S113033080E0089580E008955D9BFECF2091CE017A
S11303403091CF01A9014F5F5F4F5093CF0140938C
S1130350CE01FC01E20FF31F80818CB95D9A0895F0
S11303605D9BFECF8CB95D9A08958CB15F9A089518
S11303700F931F93CF93FC018081882351F08F0149
S1130380C0E0CF5FEDDFF801EC0FF11D808181113A
S1130390F8CFCF911F910F9108958091CA01909148
S11303A0CB0101969093CB018093CA018EEF85BB5C
S11303B023E488E392E0215080409040E1F700C0BC
S11303C000008FEF85BB8CED91E0B5DE81E090E01D
S11303D09093080180930701089560E071E08CED2B
S11303E091E0BAD19093DB018093DA010895ECEDAA
S11303F0F1E08CEE91E01192E817F907E1F7089526
S11304008EEF85BBAEDE60E080E0A3DE8BE791E09B
S113041092DE60E081E09DDE84E891E08CDE27EFEF
S113042087E992E4215080409040E1F700C0000049
S11304308FEF85BB96DEDBDF1092CD011092CC01ED
S11304401092CB011092CA0108958BDE60E080E027
S113045080DE83E991E06FDE60E081E07ADE8DE9A1
S113046091E069DE2FE485E69CE2215080409040D3
S1130470E1F700C0000075DEBADF1092CD011092E2
S1130480CC011092CB011092CA010895CF93DF934F
S1130490CDB7DEB7C059D1090FB6F894DEBF0FBE91
S11304A0CDBF8FE081BB1FEF1ABB86EF87BB62DE37
S11304B08DE0ECEAF1E0DE01119601900D928A954F
S11304C0E1F789E5E9E0F1E0DE011E9601900D9285
S11304D08A95E1F789E1E2E6F1E0DE01A959BF4F2F
S11304E001900D928A95E1F781E1E9EBF1E0DE01FB
S11304F0A058BF4F01900D928A95E1F78EEF82B913
S11305001BB888E18AB986E0809395001092900028
S113051083E089B914BB60E080E01BDECE01019664
S11305200ADE0F2EFEEFAF2EF02DBB24BA94EE247C
S1130530E394F12C0F2EF0E0CF2EF1E0DF2EF02D1E
S11305400F2EFDED4F2EF1E05F2EF02D0F2EFEED60
S11305506F2EF1E07F2EF02D0F2EFFED8F2EF1E0A8
S11305609F2EF02D60E080E0F4DDCE010196E3DD06
S113057060E081E0EEDD86B38830D9F486B388305C
S1130580E9F3A5BA23E488E392E021508040904047
S1130590E1F700C00000B5BA2ADFCE010E96E8DE0E
S11305A0F092D101E092D00186B3813009F056C0B7
S11305B003C086B38130C1F486B38130E9F3A5BAB0
S11305C0E3E4F8E322E0E150F0402040E1F700C02A
S11305D00000B5BA0CDFCE0189599F4FC9DE1092D5
S11305E0D1011092D00106C08091D0019091D10127
S11305F0892B69F50091CA011091CB01D4DDF80172
S1130600E452FE4F80838091070190910801892B69
S113061051F48091D90181111AC088E097E40197BF
S1130620F1F70000BADE809107019091080101976B
S113063071F48091D901813051F4CFDE892B21F4FA
S1130640DFDE1092D90103C000DF1092D90180913E
S1130650D0019091D101019709F084CF5F9B82CFA3
S11306600091CA011091CB0180DEF801E452FE4FE3
S113067080838091CA019091CB0101969093CB0124
S11306808093CA018CED91E057DE8CED91E053DD4F
S11306908091CA019091CB010197FC01E452FE4F75
S11306A02081283709F054C0FC01E452FE4F108227
S11306B094DE892B49F4A4DE89EA91E059DE109294
S11306C0CF011092CE0108C0C0DE89EA91E050DE6D
S11306D01092CF011092CE018091CA019091CB016A
S11306E00197FC01E452FE4F2081233609F03ACFF2
S11306F02091DC01F6012083F2012081F60121839F
S1130700F3012081F6012283F4012081F601238381
S1130710FC01E050FF4F10821092CF011092CE01E5
S113072089EA91E025DE63DE1CDDCE0180589F4F0F
S113073002DDFFE425E68CE2F15020408040E1F741
S113074000C000000EDD1092CB011092CA010ACF46
S1130750233609F007CFCCCFFB01DC018D9101904A
S111076080190110D9F3990B0895F894FFCF76
S113076E3131313100010101000D0A2A2A2A2A549D
S113077E65726D696E616C204D6F64652A2A2A2A32
S113078E0D0A456E74657220796F7572205057206C
S113079E616E6420707265737320746865202778A7
S11307AE270D0A546F206368616E6765207468654F
S11307BE2050572C205072657373202763270D0A1F
S11307CE00000D0A2A2A2A2A4B6579506164204DAD
S11307DE6F64652A2A2A2A0D0A0000436F72726515
S11307EE63742100446F6F72206973204F70656EBD
S11307FE21210057726F6E67205057210054727971
S113080E20416761696E2121000D0A005075742024
S113081E796F757220505721004368616E676520A9
S10D082E436F6D706C65746564001F
S9030000FC
