:1000000045C0000060C000005EC000005CC0000091
:100010005AC0000058C0000056C0000054C0000084
:1000200052C0000050C000004EC000004CC0000094
:100030004AC0000048C0000046C0000044C00000A4
:1000400042C0000040C000003EC000003CC00000B4
:100050003AC0000038C0000036C0000034C00000C4
:1000600032C0000030C000002EC000002CC00000D4
:100070002AC0000028C0000026C0000024C00000E4
:1000800022C0000020C000001EC0000011241FBEBE
:10009000CFEFD0E1DEBFCDBF11E0A0E0B1E0EAE8F4
:1000A000F2E000E00BBF02C007900D92A431B1074F
:1000B000D9F721E0A4E1B1E001C01D92AB31B20754
:1000C000E1F731D0E0C09CCF5D9BFECF8CB95D9A4B
:1000D00008955F9BFECF8CB15F9A0895CF93C0EDDA
:1000E000C80F8C2FF1DFEC2FF0E0EE0FFF1FE05078
:1000F000FF4F2081318140E050E068E47DEF8EE6E3
:1001000090E031D037BD26BD26B537B5ADECBCEC9F
:1001100046D096958795969587959093790080938C
:100120007800CF91089580E887BB8FB58A608FBD36
:100130008EB589618EBD10927A001DBC1CBC8EEFFD
:1001400082B91BB888E18AB986E080939500109245
:10015000900083E089B9BDDFB7DF52D080931401EE
:100160009927BCDFF8CF052E97FB16F400940FD02B
:1001700057FD05D023D007FC02D046F408C05095A7
:100180004095309521953F4F4F4F5F4F0895909583
:100190008095709561957F4F8F4F9F4F0895A29FD7
:1001A000B001B39FC001A39F700D811D1124911D4B
:1001B000B29F700D811D1124911D0895A1E21A2E88
:1001C000AA1BBB1BFD010DC0AA1FBB1FEE1FFF1FFB
:1001D000A217B307E407F50720F0A21BB30BE40B4B
:1001E000F50B661F771F881F991F1A9469F7609592
:1001F0007095809590959B01AC01BD01CF0108954C
:10020000809115019091160100C0CF93DF93EC010E
:100210002B8120FF33C026FF0AC02F7B2B838E81CA
:100220009F8101969F838E838A8190E029C022FF5F
:100230000FC0E881F9818081082E000C990B00978E
:1002400019F420622B831AC03196F983E8830EC01B
:10025000EA85FB85099597FF09C02B81019611F06E
:1002600080E201C080E1822B8B8308C02E813F8118
:100270002F5F3F4F3F832E83992702C08FEF9FEF61
:0A028000DF91CF910895F894FFCFAD
:10028A000501250149015D018701B801ED010B0254
:04029A000000000060
:00000001FF
