S00E00004B65795061642E73726563D8
S113000045C0000060C000005EC000005CC000008D
S11300105AC0000058C0000056C0000054C0000080
S113002052C0000050C000004EC000004CC0000090
S11300304AC0000048C0000046C0000044C00000A0
S113004042C0000040C000003EC000003CC00000B0
S11300503AC0000038C0000036C0000034C00000C0
S113006032C0000030C000002EC000002CC00000D0
S11300702AC0000028C0000026C0000024C00000E0
S113008022C0000020C000001EC0000011241FBEBA
S1130090CFEFD0E1DEBFCDBF11E0A0E0B1E0E4E4FA
S11300A0F3E000E00BBF02C007900D92A830B10747
S11300B0D9F721E0A8E0B1E001C01D92A031B20758
S11300C0E1F7E9D03DC19CCF8EEF82BB2CEC8CECE8
S11300D091E0215080409040E1F700C080B3807FE0
S11300E0803E31F4109207011092060181E00895D8
S11300F080B3807F803D31F4109207011092060195
S113010084E0089580B3807F803B31F4109207012E
S11301101092060187E0089580B3807F803759F4F8
S113012081E090910101911180E08093000180931E
S113013001018AE208958DEF82BB2CEC8CEC91E0F6
S1130140215080409040E1F700C080B3807F803E22
S113015031F4109207011092060182E0089580B3F1
S1130160807F803D31F4109207011092060185E0F2
S1130170089580B3807F803B31F410920701109280
S1130180060188E0089580B3807F803731F41092AF
S113019007011092060180E008958BEF82BB2CECDE
S11301A08CEC91E0215080409040E1F700C080B396
S11301B0807F803E31F4109207011092060183E0A3
S11301C0089580B3807F803D31F41092070110922E
S11301D0060186E0089580B3807F803B31F410925D
S11301E007011092060189E0089580B3807F80376B
S11301F031F4109207011092060183E208950895E4
S1130200E2E6F0E010822FEF8FEF9CE22150804075
S11302109040E1F700C000008FEF80831092090145
S11302201092080110920B0110920A010895809116
S11302300A0190910B0183309105B9F46091080192
S113024070910901E2E0F1E0ACE0B1E046E051E098
S113025031912D91321302C06F5F7F4FE417F50780
S1130260B9F77093090160930801019690930B010B
S113027080930A0185BB2FEF8FE392E021508040E9
S11302809040E1F700C0000081E090E09093070106
S11302908093060108958FE081BB84BB8FEF809328
S11302A0610085BB809362001FEFC0910A01D09169
S11302B00B010ADFC45FDE4F8883809106019091B1
S11302C00701892B29F480910001811129C0AFDF36
S11302D08091080190910901049729F4809100010B
S11302E0813029F58DDF8091000181110AC015BA92
S11302F02FEF8FE392E0215080409040E1F700C05F
S1130300000080910001813081F615BB2FEF8FE34F
S113031092E0215080409040E1F700C00000C5CF3A
S11303208091080190910901049759F703C088232B
S1130330F1F2BBCF80910001813009F0B6CFD2CF6A
S1070340F894FFCF5B
S10B03440101010101010100A6
S9030000FC
