S01000006C63645F746573742E73726563C2
S113000045C0000058C0000056C0000054C00000A5
S113001052C0000050C000004EC000004CC00000A0
S11300204AC0000048C0000046C0000044C00000B0
S113003042C0000040C000003EC000003CC00000C0
S11300403AC0000038C0000036C0000034C00000D0
S113005032C0000030C000002EC000002CC00000E0
S11300602AC0000028C0000026C0000024C00000F0
S113007022C0000020C000001EC000001CC0000000
S11300801AC0000018C0000016C0000011241FBED2
S1130090CFEFD0E1DEBFCDBF11E0A0E0B1E0ECEBEB
S11300A0F1E000E00BBF02C007900D92A630B1074B
S11300B0D9F76AD081C0A4CFD898D998982F907FC7
S11300C094609BBB2BE72A95F1F7DA98D898D998D6
S11300D020E1829FC001112484608BBB8BE78A9549
S11300E0F1F7DA980895D998982F907F95609BBB83
S11300F02BE72A95F1F7DA98D99820E1829FC0017D
S1130100112485608BBB8BE78A95F1F7DA98089503
S1130110EADF83E397E00197F1F70895CF93DF9344
S1130120EC018881882329F02196F2DF89918111DD
S1130130FCCFDF91CF91089590E4899F600D112445
S1130140862F8068B9CF089581E0B6DF86E69EE009
S11301500197F1F70000089582E0AEDF86E69EE0A5
S11301600197F1F7000088E2A7DF9BE59A95F1F784
S11301708CE0A2DF8BE58A95F1F786E09DDF9BE5B5
S11301809A95F1F7E1CF0895CF93DF9300D000D093
S113019000D0CDB7DEB786E0E0E0F1E0DE011196F5
S11301A001900D928A95E1F7D7DF60E080E0C4DF2B
S10F01B0CE010196B3DFFFCFF894FFCF1F
S10901BC68656C6C6F0025
S9030000FC
