:1000000045C0000060C000005EC000005CC0000091
:100010005AC0000058C0000056C0000054C0000084
:1000200052C0000050C000004EC000004CC0000094
:100030004AC0000048C0000046C0000044C00000A4
:1000400042C0000040C000003EC000003CC00000B4
:100050003AC0000038C0000036C0000034C00000C4
:1000600032C0000030C000002EC000002CC00000D4
:100070002AC0000028C0000026C0000024C00000E4
:1000800022C0000020C000001EC0000011241FBEBE
:10009000CFEFD0E1DEBFCDBF11E0A0E0B1E0E8EEF0
:1000A000F5E000E00BBF02C007900D92A832B10747
:1000B000D9F721E0A8E2B1E001C01D92AD34B2074A
:1000C000E1F703D28FC29CCFD898D998982F907F10
:1000D00094609BBB2BE72A95F1F7DA98D898D998CA
:1000E00020E1829FC001112484608BBB8BE78A953D
:1000F000F1F7DA980895D998982F907F95609BBB77
:100100002BE72A95F1F7DA98D99820E1829FC00170
:10011000112485608BBB8BE78A95F1F7DA980895F7
:10012000EADF83E397E00197F1F70895CF93DF9338
:10013000EC018881882329F02196F2DF89918111D1
:10014000FCCFDF91CF91089590E4899F600D112439
:10015000862F8068B9CF089581E0B6DF86E69EE0FD
:100160000197F1F70000089582E0AEDF86E69EE099
:100170000197F1F7000088E2A7DF9BE59A95F1F778
:100180008CE0A2DF8BE58A95F1F786E09DDF9BE5A9
:100190009A95F1F7E1CF08958EEF82BB8FEF97E448
:1001A0000197F1F700C0000080B3807F803E51F4DA
:1001B00080B3807F803EE1F310920A011092090122
:1001C00081E3089580B3807F803D51F480B3807FC8
:1001D000803DE1F310920A011092090184E3089531
:1001E00080B3807F803B51F480B3807F803BE1F31C
:1001F00010920A011092090187E3089580B3807F6D
:10020000803779F480B3807F8037E1F381E090918B
:100210000601911180E080934A018093060180E0FD
:1002200008958DEF82BB8FEF97E40197F1F700C03F
:10023000000080B3807F803E51F480B3807F803E99
:10024000E1F310920A011092090182E3089580B34C
:10025000807F803D51F480B3807F803DE1F3109238
:100260000A011092090185E3089580B3807F803BE5
:1002700051F480B3807F803BE1F310920A01109229
:10028000090188E3089580B3807F803751F480B3FB
:10029000807F8037E1F310920A011092090180E318
:1002A00008958BEF82BB8FEF97E40197F1F700C0C1
:1002B000000080B3807F803E51F480B3807F803E19
:1002C000E1F310920A011092090183E3089580B3CB
:1002D000807F803D51F480B3807F803DE1F31092B8
:1002E0000A011092090186E3089580B3807F803B64
:1002F00051F480B3807F803BE1F310920A011092A9
:10030000090189E3089580B3807F803751F480B379
:10031000807F8037E1F310920A011092090183E295
:10032000089580E008955D9BFECF209128013091D3
:100330002901A9014F5F5F4F509329014093280184
:10034000FC01E20FF31F80818CB95D9A08958CB196
:100350005F9A20912A0130912B012F5F3F4F3093FC
:100360002B0120932A0108958EEF85BB8BE091E04D
:10037000DDDE2FEF8FE793E4215080409040E1F7DE
:1003800000C000008FEF85BBE7DE109233011092B2
:10039000320110922B0110922A01089580912A01B6
:1003A00090912B01019690932B0180932A018EEF5F
:1003B00085BB2FEF8FE392E0215080409040E1F722
:1003C00000C000008FEF85BB80912A0190912B0126
:1003D000209107013091080182179307A9F518169B
:1003E0001906C4F46091320170913301E0E0F1E04C
:1003F000ACE2B1E0AC0140505F4F31912D9132132E
:1004000002C06F5F7F4FE417F507B9F770933301B0
:10041000609332010A9774F0ECE2F1E026E331E0F8
:1004200089E191E08193E217F307E1F710922B0144
:1004300010922A018CE291E079DE81E090E09093C5
:100440000A018093090108950A9734F7F3CFCF93F7
:10045000DF9340910701509108011416150654F5D9
:100460006091320170913301E0E0F1E0CCE2D1E043
:100470009A0120503F4FDE0191918D91981302C057
:100480006F5F7F4FE217F307B9F708C08993C4176E
:10049000D507E1F783E090E015C014C070933301F5
:1004A0006093320164177507C1F7445D5E4F89E1BF
:1004B00091E0ECCF809132019091330148175907B8
:1004C00061F7E8CFDF91CF910895CF93DF93CDB758
:1004D000DEB72D970FB6F894DEBF0FBECDBF8FE00D
:1004E00081BB1FEF1ABB40DE8DE0EAE1F1E0DE01E7
:1004F000119601900D928A95E1F78EEF82B91BB8A3
:1005000088E18AB986E0809395001092900083E09C
:1005100089B914BB60E080E017DECE01019606DEEB
:100520000F2EFEEFEF2EF02DFF24FA9460E080E016
:100530000BDECE010196FADD60E081E005DE009180
:100540002A0110912B0128DEF801E45DFE4F808323
:100550008091090190910A01892B59F480914A01F7
:1005600081113DC08FEF97E40197F1F700C00000C3
:1005700015DF5F9B0FC000912A0110912B01E7DE70
:10058000F801E45DFE4F80838CE291E0CCDE8CE2EA
:1005900091E0CCDD8091090190910A01019709F069
:1005A000C5CF80914A01813009F0C0CF8FEF97E429
:1005B0000197F1F700C00000E5BA9FEF2FE382E05A
:1005C000915020408040E1F700C00000F5BA3FDFC5
:1005D000039709F0ABCFC8DE10924A01A7CF5F9B0B
:0805E000A5CFC9CFF894FFCFAD
:1005E8003131313131310106000100446F6F722021
:1005F8006973204F70656E21210050757420796FE2
:0806080075722050572100001B
:00000001FF
