:1000000045C0000060C000005EC000005CC0000091
:100010005AC0000058C0000056C0000054C0000084
:1000200052C0000050C000004EC000004CC0000094
:100030004AC0000048C0000046C0000044C00000A4
:1000400042C0000040C000003EC000003CC00000B4
:100050003AC0000038C0000036C0000034C00000C4
:1000600032C0000030C000002EC000002CC00000D4
:100070002AC0000028C0000026C0000024C00000E4
:1000800022C0000020C000001EC0000011241FBEBE
:10009000CFEFD0E1DEBFCDBF11E0A0E0B1E0E0E9FD
:1000A000F7E000E00BBF02C007900D92A83FB10738
:1000B000D9F722E0A8EFB1E001C01D92A430B20749
:1000C000E1F7E2D163C39CCFD898D998982F907F5D
:1000D00094609BBB2BE72A95F1F7DA98D898D998CA
:1000E00020E1829FC001112484608BBB8BE78A953D
:1000F000F1F7DA980895D998982F907F95609BBB77
:100100002BE72A95F1F7DA98D99820E1829FC00170
:10011000112485608BBB8BE78A95F1F7DA980895F7
:10012000EADF83E397E00197F1F70895CF93DF9338
:10013000EC018881882329F02196F2DF89918111D1
:10014000FCCFDF91CF91089590E4899F600D112439
:10015000862F8068B9CF089581E0B6DF86E69EE0FD
:100160000197F1F70000089582E0AEDF86E69EE099
:100170000197F1F7000088E2A7DF9BE59A95F1F778
:100180008CE0A2DF8BE58A95F1F786E09DDF9BE5A9
:100190009A95F1F7E1CF08958EEF82BB8FEF97E448
:1001A0000197F1F700C0000080B3807F803E51F4DA
:1001B00080B3807F803EE1F3109207011092060128
:1001C00081E3089580B3807F803D51F480B3807FC8
:1001D000803DE1F3109207011092060184E3089537
:1001E00080B3807F803B51F480B3807F803BE1F31C
:1001F000109207011092060187E3089580B3807F73
:10020000803779F480B3807F8037E1F381E090918B
:100210000501911180E0809300028093050180E048
:1002200008958DEF82BB8FEF97E40197F1F700C03F
:10023000000080B3807F803E51F480B3807F803E99
:10024000E1F3109207011092060182E3089580B352
:10025000807F803D51F480B3807F803DE1F3109238
:1002600007011092060185E3089580B3807F803BEB
:1002700051F480B3807F803BE1F31092070110922C
:10028000060188E3089580B3807F803751F480B3FE
:10029000807F8037E1F3109207011092060180E31E
:1002A00008958BEF82BB8FEF97E40197F1F700C0C1
:1002B000000080B3807F803E51F480B3807F803E19
:1002C000E1F3109207011092060183E3089580B3D1
:1002D000807F803D51F480B3807F803DE1F31092B8
:1002E00007011092060186E3089580B3807F803B6A
:1002F00051F480B3807F803BE1F3109207011092AC
:10030000060189E3089580B3807F803731F480B39C
:10031000807F8037E1F380E0089580E008955D9B61
:10032000FECF2091FA013091FB01A9014F5F5F4F91
:100330005093FB014093FA01FC01E20FF31F80810F
:100340008CB95D9A08955D9BFECF8CB95D9A089536
:100350008CB15F9A08950F931F93CF93FC01808116
:10036000882351F08F01C0E0CF5FEDDFF801EC0F83
:10037000F11D80818111F8CFCF911F910F910895C8
:100380008091FE019091FF0101969093FF0180936F
:10039000FE018EEF85BB2FEF8FE392E0215080406E
:1003A0009040E1F700C000008FEF85BB83E092E052
:1003B000BDDE81E090E090930701809306010895EF
:1003C00060E071E083E092E0D8D1909302028093E4
:1003D00001020895E3E0F2E083E192E01192E81770
:1003E000F907E1F70895B8DE60E080E0ADDE8AE766
:1003F00091E09CDE60E081E0A7DE83E891E096DE9C
:100400008EEF85BB2FEF8FE796E121508040904023
:10041000E1F700C000008FE785BB2FEF8FE796E183
:10042000215080409040E1F700C000008FEF85BB75
:1004300093DED0DF1092F9011092F8011092FF01C3
:100440001092FE01089588DE60E080E07DDE82E9A2
:1004500091E06CDE60E081E077DE8CE991E066DEC1
:100460002FEF8FEF9CE2215080409040E1F700C0D9
:10047000000072DEAFDF1092F9011092F8011092C5
:10048000FF011092FE010895CF93DF93CDB7DEB741
:10049000C059D1090FB6F894DEBF0FBECDBF8FE0B3
:1004A00081BB1FEF1ABB86EF87BB5EDE8DE0EAEDF6
:1004B000F1E0DE01119601900D928A95E1F789E550
:1004C000E8E0F1E0DE011E9601900D928A95E1F7D9
:1004D00089E1E1E6F1E0DE01A959BF4F01900D92FB
:1004E0008A95E1F781E1E7EEF1E0DE01A058BF4F28
:1004F00001900D928A95E1F78EEF82B91BB888E1E1
:100500008AB986E0809395001092900083E089B9C3
:1005100014BB60E080E018DECE01019607DE0F2EEE
:10052000FEEFAF2EF02DBB24BA94EE24E394F12C11
:100530000F2EF0E0CF2EF1E0DF2EF02D0F2EF4E0A5
:100540004F2EF2E05F2EF02D0F2EF5E06F2EF2E031
:100550007F2EF02D0F2EF6E08F2EF2E09F2EF02D45
:1005600060E080E0F1DDCE010196E0DD60E081E059
:10057000EBDD86B38830D9F486B38830E9F3A5BAC9
:100580002FEF8FE392E0215080409040E1F700C0D0
:100590000000B5BA1FDFCE010E96DDDEF092FD0140
:1005A000E092FC0186B3813009F057C003C086B3E6
:1005B0008130C1F486B38130E9F3A5BAEFEFFFE3F0
:1005C00022E0E150F0402040E1F700C00000B5BA61
:1005D00001DFCE0189599F4FBEDE1092FD011092BE
:1005E000FC0106C08091FC019091FD01892B71F501
:1005F0000091FE011091FF01CFDDF801ED5FFD4F8D
:1006000080838091060190910701892B59F4809194
:10061000000281111BC08FEF97E40197F1F700C032
:100620000000AEDE8091060190910701019771F400
:1006300080910002813051F4C3DE892B21F4D3DE96
:100640001092000203C0FFDE109200028091FC01B4
:100650009091FD01019709F083CF5F9B81CF0091BD
:10066000FE011091FF0174DEF801ED5FFD4F808304
:100670008091FE019091FF0101969093FF0180937C
:10068000FE0183E092E04BDE83E092E04FDD80915B
:10069000FE019091FF010197FC01ED5FFD4F20816C
:1006A000283709F066C0FC01ED5FFD4F108288DE3F
:1006B000892B79F488EA91E04EDE8BEA91E04BDEFB
:1006C00088EA91E048DE8FDE1092FB011092FA0179
:1006D0000EC088EA91E03FDE89EB91E03CDE88EADB
:1006E00091E039DEB0DE1092FB011092FA018091A8
:1006F000FE019091FF010197FC01ED5FFD4F20810C
:10070000233609F02DCF20910302F6012083F20158
:100710002081F6012183F3012081F6012283F40177
:100720002081F6012383FC01E050FF4F10821092DC
:10073000FB011092FA0188EA91E00DDE89EC91E06C
:100740000ADE88EA91E007DE45DE06DDCE0180584C
:100750009F4FECDCFFEF2FEF8CE2F1502040804008
:10076000E1F700C00000F8DC1092FF011092FE01DA
:10077000F7CE233609F0F4CEC6CFFB01DC018D9114
:10078000019080190110D9F3990B0895F894FFCFC7
:1007900031313131000101000D0A2A2A2A2A54651B
:1007A000726D696E616C204D6F64652A2A2A2A0D6C
:1007B0000A456E74657220796F75722050572061FA
:1007C0006E642070726573732074686520277827C3
:1007D0000D0A546F206368616E6765207468652038
:1007E00050572C205072657373202763270D0A0021
:1007F000000D0A2A2A2A2A4B6579506164204D6F20
:1008000064652A2A2A2A0D0A0000436F7272656302
:10081000742100446F6F72206973204F70656E21E0
:10082000210057726F6E6720505721005472792053
:10083000416761696E2121000D0A00446F6F7220CB
:100840006973204F70656E210057726F6E6720507C
:10085000617373576F726421004368616E6765202E
:10086000436F6D706C657465210050757420796FED
:10087000757220505721004368616E676520436F91
:080880006D706C657465640085
:00000001FF
