:1000000045C000004BC0000049C0000047C00000D0
:1000100045C0000043C0000041C000003FC00000D8
:100020003DC000003BC0000039C0000037C00000E8
:1000300035C0000033C0000031C000002FC00000F8
:100040002DC000002BC0000029C0000027C0000008
:1000500025C0000023C0000021C000001FC0000018
:100060001DC000001BC0000019C0000017C0000028
:1000700015C0000013C0000011C000000FC0000038
:100080000DC000000BC0000009C0000011241FBEFD
:10009000CFEFD0E1DEBFCDBF6AD094C0B1CFD8984A
:1000A000D998982F907F94609BBB2BE72A95F1F706
:1000B000DA98D898D99820E1829FC00111248460F1
:1000C0008BBB8BE78A95F1F7DA980895D998982F2A
:1000D000907F95609BBB2BE72A95F1F7DA98D9982A
:1000E00020E1829FC001112485608BBB8BE78A953C
:1000F000F1F7DA980895EADF83E397E00197F1F7E3
:100100000895CF93DF93EC018881882329F021960D
:10011000F2DF89918111FCCFDF91CF91089590E4B6
:10012000899F600D1124862F8068B9CF089581E0E2
:10013000B6DF86E69EE00197F1F70000089582E0C1
:10014000AEDF86E69EE00197F1F7000088E2A7DFC8
:100150009BE59A95F1F78CE0A2DF8BE58A95F1F7A4
:1001600086E09DDF9BE59A95F1F7E1CF0895CF9367
:10017000DF9300D01F92CDB7DEB782E0809361009D
:10018000809362008FEF8BBBDADF17B886E886B901
:1001900088E699E69A8389831B82369A349BFECF40
:1001A00084B195B160E080E0BADFCE010196A9DFAD
:1001B0002FEF8FE39BE0215080409040E1F700C09B
:0801C0000000EBCFF894FFCF23
:00000001FF
