S016000053657269616C5F70726F746575732E737265633D
S113000045C0000060C000005EC000005CC000008D
S11300105AC0000058C0000056C0000054C0000080
S113002052C0000050C000004EC000004CC0000090
S11300304AC0000048C0000046C0000044C00000A0
S113004042C0000040C000003EC000003CC00000B0
S11300503AC0000038C0000036C0000034C00000C0
S113006032C0000030C000002EC000002CC00000D0
S11300702AC0000028C0000026C0000024C00000E0
S113008022C0000020C000001EC0000011241FBEBA
S1130090CFEFD0E1DEBFCDBF11E0A0E0B1E0E8E5F5
S11300A0F2E000E00BBF02C007900D92AC30B10744
S11300B0D9F721E0ACE0B1E001C01D92A032B20753
S11300C0E1F78BD0C7C09CCFD898D998982F907F50
S11300D094609BBB2BE72A95F1F7DA98D898D998C6
S11300E020E1829FC001112484608BBB8BE78A9539
S11300F0F1F7DA980895D998982F907F95609BBB73
S11301002BE72A95F1F7DA98D99820E1829FC0016C
S1130110112485608BBB8BE78A95F1F7DA980895F3
S1130120EADF83E397E00197F1F70895CF93DF9334
S1130130EC018881882329F02196F2DF89918111CD
S1130140FCCFDF91CF91089590E4899F600D112435
S1130150862F8068B9CF089581E0B6DF86E69EE0F9
S11301600197F1F70000089582E0AEDF86E69EE095
S11301700197F1F7000088E2A7DF9BE59A95F1F774
S11301808CE0A2DF8BE58A95F1F786E09DDF9BE5A5
S11301909A95F1F7E1CF08955D9BFECF20910C0174
S11301A030910D01A9014F5F5F4F50930D014093B2
S11301B00C01FC01E20FF31F80818CB95D9A089554
S11301C08CB15F9A20910E0130910F012F5F3F4F48
S11301D030930F0120930E010895CF93DF93CDB791
S11301E0DEB72B970FB6F894DEBF0FBECDBF8FEFEF
S11301F08ABBBADF8BE0E0E0F1E0DE01119601900A
S11302000D928A95E1F78EEF82B91BB888E18AB91D
S113021086E0809395001092900083E089B960E0B5
S113022080E092DFCE01019681DF60E081E08CDF27
S11302305F9B0CC000910E0110910F01C1DFF8010A
S1130240E05FFE4F808380E191E0A6DF80E191E0F2
S10B02506DDFE5CFF894FFCF48
S10F025848656C6C6F21212121210000FD
S9030000FC
