S01300004C43442D70726F746575732E73726563FF
S113000045C0000058C0000056C0000054C00000A5
S113001052C0000050C000004EC000004CC00000A0
S11300204AC0000048C0000046C0000044C00000B0
S113003042C0000040C000003EC000003CC00000C0
S11300403AC0000038C0000036C0000034C00000D0
S113005032C0000030C000002EC000002CC00000E0
S11300602AC0000028C0000026C0000024C00000F0
S113007022C0000020C000001EC000001CC0000000
S11300801AC0000018C0000016C0000011241FBED2
S1130090CFEFD0E1DEBFCDBF11E0A0E0B1E0E0E7FB
S11300A0F3E000E00BBF02C007900D92AE30B10741
S11300B0D9F709D15BC1A4CFD898D998982F907F4C
S11300C094609BBB2BE72A95F1F7DA98D898D998D6
S11300D020E1829FC001112484608BBB8BE78A9549
S11300E0F1F7DA980895D998982F907F95609BBB83
S11300F02BE72A95F1F7DA98D99820E1829FC0017D
S1130100112485608BBB8BE78A95F1F7DA98089503
S1130110EADF83E397E00197F1F70895CF93DF9344
S1130120EC018881882329F02196F2DF89918111DD
S1130130FCCFDF91CF91089590E4899F600D112445
S1130140862F8068B9CF089581E0B6DF86E69EE009
S11301500197F1F70000089582E0AEDF86E69EE0A5
S11301600197F1F7000088E2A7DF9BE59A95F1F784
S11301708CE0A2DF8BE58A95F1F786E09DDF9BE5B5
S11301809A95F1F7E1CF08958EEF82BB2FEF8FE7B9
S113019094E0215080409040E1F700C0000080B31B
S11301A0807F803E31F4109201011092000181E3BE
S11301B0089580B3807F803D31F410920101109244
S11301C0000184E3089580B3807F803B31F4109272
S11301D001011092000187E3089580B3807F803786
S11301E031F410920101109200018AE208958DEF1A
S11301F082BB2FEF8FE794E0215080409040E1F7DD
S113020000C0000080B3807F803E31F41092010171
S11302101092000182E0089580B3807F803D31F424
S1130220109201011092000185E0089580B3807F4F
S1130230803B31F4109201011092000188E008958E
S113024080B3807F803731F4109201011092000155
S113025080E008958BEF82BB2FEF8FE794E021506D
S113026080409040E1F700C0000080B3807F803E72
S113027031F4109201011092000183E0089580B3DB
S1130280807F803D31F4109201011092000186E0DC
S1130290089580B3807F803B31F410920101109265
S11302A0000189E0089580B3807F803731F4109293
S11302B001011092000183E2089508955F9BFECF2F
S11302C08CB15F9A0895CF93DF93CDB7DEB72B97A8
S11302D00FB6F894DEBF0FBECDBF8FE081BB8BE0BD
S11302E0E2E0F1E0DE01119601900D928A95E1F7CA
S11302F08FEF8ABB31DF8EEF82B91BB888E18AB9F0
S113030086E0809395001092900083E089B901E023
S113031010E03ADF8FEF97E40197F1F700C0000097
S11303208091000190910101892B69F49FEF2FE1E5
S113033081E0915020408040E1F700C0000010931C
S113034001010093000160E080E0F6DECE01019639
S1130350E5DE60E081E0F0DEB1DF90E0DFDE8FEF2C
S113036097E40197F1F700C00000D3CFF894FFCFD2
S1110370010048656C6C6F21212121210000E1
S9030000FC
